:1000000008308A0000280000FF00030E8301A100D1
:100010000A08A0008A010408A2007708A300780853
:10002000A4007908A5007A08A600831383128B1E0A
:100030001B280B192C28220884002308F700240809
:10004000F8002508F9002608FA0020088A00210E89
:100050008300FF0E7F0E09008A110A1237280A104A
:100060008A100A11820728340C34013406348101C5
:100070000030F8001F08C73978049F003130F700BE
:10008000F70B402843281F151F19442883161E0804
:100090008312A7001E08A8000830F8001F08C739FF
:1000A00078049F003130F700F70B542857281F15AC
:1000B0001F19582883161E088312A9001E08AA00BB
:1000C0001830F8001F08C73978049F003130F70056
:1000D000F70B68286B281F151F196C2883161E083C
:1000E0008312AB001E08AC002030F8001F08C7398F
:1000F00078049F003130F700F70B7C287F281F150C
:100100001F19802883161E088312AD001E08AE003A
:10011000B0010130AF000B118A110A121B280C002C
:10012000561DA0126610411DA0126605411DA012A9
:100130006610471DA012660050308400831300082B
:100140000319A928A530F700F70BA4280000800B9D
:10015000A22808005718AE280612AF2806168316E4
:1001600006128312D718B6288612B7288616831669
:10017000861283125719BE280613BF280617831646
:1001800006138312D719C6288613C7288617831625
:1001900086130000831289148316891000008312CD
:1001A00089108316891083120800D8018316061659
:1001B00000308312061A0130D804831686160030E8
:1001C0008312861A0130F7000310F70D7708D80460
:1001D0008316061700308312061B0130F700F70D57
:1001E000F70DFC30F7057708D80483168617003022
:1001F0008312861B0130F700F70DF70DF70DF8306D
:10020000F7057708D8045808F80008008316891005
:100210000910091183120910831609100616861693
:100220000617861783120915831609110000831219
:1002300089148316891000008312D5207808D7000E
:10024000891083168910000083128914831689107F
:100250008312D5207808D6008910831689100612DB
:100260008612061386138312570EF700F030F70537
:1002700077085604F8007808D600D61F412983165F
:100280000E29D408031D462909104729091483168D
:10029000091000008312091183160911000083124E
:1002A0008910831689108312550ED6000F30D6059B
:1002B0005608D700AA2055080F39D600D700AA2023
:1002C0000800831606128612061386138910091079
:1002D000091183120910831609108312091183165C
:1002E000091183128910831689100F308312D000F0
:1002F0009C200130C2004208033C031C87290330C4
:10030000D700AA200530D0009C20C20A7B290230E9
:10031000D700AA200530D0009C20C2014208033C2F
:10032000031C9B2942082F20C300D4014308D50099
:100330000621C20A8E298A150A1235284208013977
:10034000F700FA0144107718441442080139F70005
:10035000FA01C4107718C414441CB0290615B22938
:10036000441C0611C41CB6298615B829C41C861164
:100370000030441801304202C5004308C600003076
:10038000031C0130C6020030C4180130F70003100E
:10039000F70D7708C5020030031C0130C602460C79
:1003A000C300450CC200C30CC20C3F30C30583160A
:1003B00088018312420888008A150A125228510BBC
:1003C000E229E5294030D200E629D201013050026D
:1003D000D20752088038D300D4015308D500062133
:1003E00008004F08073A0319FF290B3A0319042A9A
:1003F000063A03190C2A023A0319122A172A013065
:10040000D000D100DF211C2AD4010130D500062103
:100410000230D0009C201C2A0130D0000230D100D4
:10042000DF211C2AD4011030D50006211C2A0130FE
:10043000D4004F08D500062108000B08C2008B131A
:10044000831603178C170C140000000083120C088D
:100450007F390319642A0313C30003170D0803131C
:10046000C40003170F080313C5004308CF00F12190
:10047000440803178D000313450803178F008316E4
:100480008C170C140000000083120C0D0E0D7F3928
:100490000319642A0313C30003170D080313C400D0
:1004A00003170F080313C5004308CF00F1214408C8
:1004B00003178D000313450803178F008D0A0319D6
:1004C0008F0A0313202A03170313C21B8B178A15E5
:1004D0000A1260288E30F7004308F8004208F9003D
:1004E000FA01F808031D7E2A7908F800F90108309E
:1004F000F702F808031D7E2AF701862A0310F81B6D
:10050000852AF90DF80DF7037E2AF81308004F0825
:100510000319F72AD70053080319F72AD707031836
:10052000982A7F30D702031CF72A0319F72A9C2A3E
:100530008130D7070318F72A5708F700F801F901A7
:10054000FA015008DB00DB175108DA005208D90025
:100550001830D700D801591CC52A5608FA07031CC1
:10056000B72AF90A031DB72AF80A0319D81755083C
:10057000F907031CBE2AF80A0319D8175408D1003A
:10058000D1175108F8070318D817D80DF80CF90C33
:10059000FA0CDB0CDA0CD90C0310D70BAA2A0130A9
:1005A000F7070318F72AF81BDC2ADB0DFA0DF90D03
:1005B000F80DF7030319F72ADB1FED2AFA0A031DCA
:1005C000ED2AF90A031DED2AF80A031DED2AF80C9D
:1005D000F90CFA0CF70A0319F72A5008D800540846
:1005E000D806D81FF52AF817FB2AF813FB2AF701BB
:1005F000F801F901FA01080046080319C12BD200DD
:100600004A080319C12BD202031C0B2B7F30D207DF
:100610000318C12B112B8130D202031CC12B0319EB
:10062000C12B5208F700F801F901FA01D10147087E
:10063000D000D0174808CF004908CE001930D200AA
:100640004D08CE020318342B0130CF020318342B8F
:10065000D0020318342BD1020318342BD10AD00A4C
:10066000CF0A4D08CE07662B4C08CF0203184F2B3C
:100670000130D00203184F2BD10203184F2BD10A9F
:10068000D00A4C08CF074D08CE07031C662BCF0AB3
:10069000031D662BD00A031D662BD10A662B4B085F
:1006A0008038D0020318652B0130D1020318652B66
:1006B000D10A4B088038D0074C08CF07031C432BC6
:1006C000D00A031D432BD10A432B7A14D20B692B7A
:1006D000742B0310CE0DCF0DD00DD10D0310FA0DDC
:1006E000F90DF80DD30D202B531C7C2B0310F80CA7
:1006F000F90CFA0CD30C7F2BF7030319C12BD31B76
:10070000A82B0310CE0DCF0DD00DD10D4D08CE026C
:100710000318942B0130CF020318942BD002031836
:10072000942BD102031CB72B4C08CF0203189F2B2C
:100730000130D00203189F2BD102031CB72B4B08AA
:100740008038D0020318A82B0130D102031CB72B2C
:10075000FA0A031DB72BF90A031DB72BF80A031D6C
:10076000B72BF70A0319C12BF80CF90CFA0C470840
:10077000D2004B08D206D21FBF2BF817C52BF81397
:10078000C52BF701F801F901FA018A150A12FF28B1
:1007900080308318CB06D001D1014708CF004B0829
:1007A000CF0646080319B82CCE00F7004A080319F3
:1007B000C12CCE0203195D2C031C1B2C4B08D4004A
:1007C000D4174C08D3004D08D200D1010310D40C2B
:1007D000D30CD20CD10CCE0BE52BCF1FF22B501427
:1007E000D52C50104E105016493084008313EA2C3B
:1007F0005012CF1B052C4E1C102CD40CD30CD20C39
:10080000D10CF70A0319D02C102CD41B132C031075
:10081000D10DD20DD30DD40DF7030319D02C052C17
:1008200050177D2C50134708CF00CF1F192CD41719
:10083000C92CD413C92C4A08CE00F7004608CE02B2
:100840004708D400D4174808D3004908D200D10182
:100850000310D40CD30CD20CD10CCE0B272CCF1FF1
:10086000342CD014D52CD0104E10D0164D3084001E
:100870008313EA2CD012CF1B472C4E1C522CD40CC5
:10088000D30CD20CD10CF70A0319D02C522CD41B48
:10089000552C0310D10DD20DD30DD40DF703031930
:1008A000D02C472CD0177D2CD0134B08CF00CF1F56
:1008B0005B2CD417C92CD413C92C4B08D400D417E3
:1008C0004C08D3004D08D200CF1F6A2CD41350150A
:1008D000D52C5011D1014E10493084008313EA2CDD
:1008E000CF1B932C4708CF004E1C7D2CD40CD30C6F
:1008F000D20CD10CF70A0319D02CD11F8E2CD20A9E
:10090000031D8E2CD30A031D8E2CD40A031D8E2C9E
:10091000D40CD30CD20CF70A0319D02C501B122C78
:10092000D01B542CB22C8030D406D41F9B2CD52C39
:100930004B08CF00A82C4708CF00D408031DA82CD3
:10094000D308031DA82CD208031DA82CF701C92C1D
:10095000D41BB22C0310D10DD20DD30DD40DF70B37
:10096000A82CD02CCF1FB62CD417C92CD413C92C2B
:100970004A08F7004B08D4004C08D3004D08D200B9
:10098000C92C4608F7004708D4004808D300490896
:10099000D2005408F8005308F9005208FA00082D54
:1009A000F701F801F901FA01082DD101D209D309A3
:1009B000D409D109D10A031DE32CD20A031DE32C6B
:1009C000D30A0319D40A5018F12BD018332C50191C
:1009D000692C982C0008D207031CF42CD30A031DA1
:1009E000F42CD40A03194E1484030008D307031C03
:1009F000FC2CD40A03194E1484030008801F803A8B
:100A0000D40703184E14501AF82BD01A3A2C702C15
:100A10008A150A1232298318102D57308400831347
:100A2000F701F801F901FA01D701D801D901DA017A
:100A3000560855045404530403194E2D2030DB008E
:100A40000310CF0DD00DD10DD20DD70DD80DD90D6E
:100A5000DA0D56085A02031D372D55085902031D99
:100A6000372D54085802031D372D53085702031C15
:100A7000482D5308D7025408031C540FD8025508B8
:100A8000031C550FD9025608031C560FDA02031433
:100A9000F70DF80DF90DFA0DDB0B202D570880002E
:100AA000840A58088000840A59088000840A5A0879
:100AB000800008000408C7004608C9000319792D02
:100AC0004508D2004408D1004308D0004208CF00B6
:100AD000D601D5012030D4008230D30087227A0895
:100AE000C5007908C4007808C3007708C200C90BA4
:100AF000602D4508D2004408D1004308D0004208C8
:100B0000CF004F08B63CCF00FA015008D300D017F1
:100B10000310D00CD10CD20CFA0CF90CF80CF70C19
:100B2000CF0B882DD31F9F2DF709F809F909FA0972
:100B3000F70A0319F80A0319F90A0319FA0A7A08D5
:100B4000C5007908C4007808C3007708C200C51F33
:100B5000B62DC703C716C209C309C409C509C20A0D
:100B60000319C30A0319C40A0319C50A3B30CE008E
:100B70009A30CD00CA30CC00CB010A30C9004608FB
:100B80000319C70A83144230840083134508D20036
:100B90004408D1004308D0004208CF004E08D600D8
:100BA0004D08D5004C08D4004B08D3000B2578081D
:100BB000F708031DEE2D460A49020319EE2D4708DA
:100BC0000319F02D0F3949020319E82D0318202EBF
:100BD000C71B202E471BF02D20301C2E2030C705B0
:100BE000C71EFE2DC7124608031DC7037708C7009E
:100BF0002D30CF00F1214708F700C7014608490210
:100C0000031D0C2E7708C7002E30CF00F1214708B6
:100C1000F7002030C70500303030C71E1C2EC71229
:100C20004608031DC7037708C7002D30CF00F12108
:100C30004708F700C7013030F7077708CF00F121E8
:100C400083104E08D2004D08D1004C08D0004B084C
:100C5000CF00D601D501D4010A30D3000B257A0884
:100C6000CE007908CD007808CC007708CB00C90BFE
:100C7000C22D08000B08C3008B13831603178C17B3
:100C80000C140000000003186C2E83120C087F392E
:100C90000313C40003170D080313C50003170F083F
:100CA0000313C6004408CF00F121450803178D0047
:100CB0000313460803178F0083168C170C140000CB
:100CC000000083120313C20B662E692E83160317CE
:100CD0006C2E8B2E8316031783120C0D0E0D7F398D
:100CE0000313C40003170D080313C50003170F08EF
:100CF0000313C6004408CF00F121450803178D00F7
:100D00000313460803178F008D0A03198F0A031077
:0C0D10000313C20B3D2EC31B8B17080001
:10100000B001AF0183161F149F141F159F11831386
:101010001F308305831290010030F80092000030E9
:1010200083169200F030831297059D051F139F17BA
:1010300083169F1783121F1483161F109F141F11EE
:101040009F110108C0390738810083128B16C03008
:101050008B0400308316880086000910891009115E
:10106000FF3085008A11831261298A151030F7003C
:10107000F70B38280000B101B501B401B301B2018A
:10108000B901B801B701B601BD01BC01BB01BA018C
:10109000C101C001BF01BE012C08C3002B08C20062
:1010A0008A119E298A152F0BAC29B008031DAC2983
:1010B0008F3003178D0000308F008A1103131D2A13
:1010C0008A152808C3002708C2008A116A228A15D7
:1010D0007A08C5007908C4007808C3007708C20000
:1010E0004508D2004408D1004308D0004208CF0090
:1010F0003330D6000230D5004E30D4007630D300E5
:101100008A1187228A157A08B5007908B400780810
:10111000B3007708B2002A08C3002908C2008A1168
:101120006A228A157A08D2007908D1007808D0009E
:101130007708CF00E530D600FF30D5001F30D4004F
:101140007730D3008A1187228A157A08C50079087A
:10115000C4007808C3007708C2004508D2004408DC
:10116000D1004308D0004208CF005730D6000430E9
:10117000D5000230D4008130D3008A1187228A152D
:101180007A08B9007908B8007808B7007708B6007F
:101190002C08C3002B08C2008A116A228A157A081B
:1011A000C5007908C4007808C3007708C200450864
:1011B000D2004408D1004308D0004208CF00D60135
:1011C000D5012030D4008130D3008A1187228A15BE
:1011D0007A08C5007908C4007808C3007708C200FF
:1011E0004508C9004408C8004308C7004208C600B3
:1011F000CD01CC01CB018930CA008A11FC2A8A15A5
:101200007A08C5007908C4007808C3007708C200CE
:101210004508D2004408D1004308D0004208CF005E
:101220000F30D600D5004F30D4008030D3008A1163
:1012300087228A157A08C5007908C4007808C30097
:101240007708C20083104508C9004408C800430855
:10125000C7004208C600CD01CC01CB017F30CA00D7
:101260008A11C82B8A157A08BD007908BC00780855
:10127000BB007708BA005630CF008A11F1218A15D9
:101280003A30CF008A11F1218A152030CF008A111F
:10129000F1218A15893084003D08C5003C08C4004E
:1012A0003B08C3003A08C2000230C6008A115A2522
:1012B0008A15923003178D0000308F00031404301C
:1012C0000313C2008A113A268A1589308400410826
:1012D000C5004008C4003F08C3003E08C2000230F9
:1012E000C6008A115A258A15953003178D000030E3
:1012F0008F00031404300313C2008A113A268A15A2
:10130000893084003508C5003408C4003308C300A0
:101310003208C2000230C6008A115A258A15983058
:1013200003178D0000308F00031404300313C20034
:101330008A113A268A15893084003908C500380890
:10134000C4003708C3003608C2000230C6008A1144
:0C1350005A258A15B001AF014C2863003B
:02400E00393F38
:00000001FF
;PIC16F877
;CRC=F1A3  CREATED="05-Haz-17 20:43"
